{
    "_format": "hh-sol-artifact-1",
    "contractName": "Moderation",
    "sourceName": "contracts/moderation.sol",
    "abi": [
        {
            "inputs": [],
            "name": "falseCount",
            "outputs": [
                {
                    "internalType": "uint256",
                    "name": "",
                    "type": "uint256"
                }
            ],
            "stateMutability": "view",
            "type": "function"
        },
        {
            "inputs": [],
            "name": "finalize",
            "outputs": [
                {
                    "internalType": "bool",
                    "name": "",
                    "type": "bool"
                }
            ],
            "stateMutability": "view",
            "type": "function"
        },
        {
            "inputs": [],
            "name": "majority",
            "outputs": [
                {
                    "internalType": "bool",
                    "name": "",
                    "type": "bool"
                }
            ],
            "stateMutability": "view",
            "type": "function"
        },
        {
            "inputs": [
                {
                    "internalType": "bool",
                    "name": "_result",
                    "type": "bool"
                }
            ],
            "name": "payUser",
            "outputs": [],
            "stateMutability": "nonpayable",
            "type": "function"
        },
        {
            "inputs": [],
            "name": "reset",
            "outputs": [],
            "stateMutability": "nonpayable",
            "type": "function"
        },
        {
            "inputs": [],
            "name": "trueCount",
            "outputs": [
                {
                    "internalType": "uint256",
                    "name": "",
                    "type": "uint256"
                }
            ],
            "stateMutability": "view",
            "type": "function"
        },
        {
            "inputs": [],
            "name": "voterCount",
            "outputs": [
                {
                    "internalType": "uint256",
                    "name": "",
                    "type": "uint256"
                }
            ],
            "stateMutability": "view",
            "type": "function"
        },
        {
            "inputs": [
                {
                    "internalType": "uint256",
                    "name": "",
                    "type": "uint256"
                }
            ],
            "name": "voterList",
            "outputs": [
                {
                    "internalType": "address",
                    "name": "",
                    "type": "address"
                }
            ],
            "stateMutability": "view",
            "type": "function"
        },
        {
            "inputs": [
                {
                    "internalType": "bool",
                    "name": "_vote",
                    "type": "bool"
                }
            ],
            "name": "voterModeration",
            "outputs": [
                {
                    "internalType": "string",
                    "name": "",
                    "type": "string"
                }
            ],
            "stateMutability": "payable",
            "type": "function"
        },
        {
            "inputs": [
                {
                    "internalType": "address",
                    "name": "",
                    "type": "address"
                }
            ],
            "name": "voters",
            "outputs": [
                {
                    "internalType": "bool",
                    "name": "voted",
                    "type": "bool"
                },
                {
                    "internalType": "bool",
                    "name": "vote",
                    "type": "bool"
                }
            ],
            "stateMutability": "view",
            "type": "function"
        }
    ],
    "bytecode": "0x608060405260006001556000600255600060035534801561001f57600080fd5b50610de08061002f6000396000f3fe6080604052600436106100915760003560e01c80637143759611610059578063714375961461017f578063a3ec138d146101af578063b6e54bdf146101ed578063d826f88f14610218578063daa7dee61461022f57610091565b80630f2ace2a1461009657806321537466146100c157806342169e48146100ec5780634bb278f31461011757806350e2e8af14610142575b600080fd5b3480156100a257600080fd5b506100ab610258565b6040516100b89190610b1e565b60405180910390f35b3480156100cd57600080fd5b506100d661025e565b6040516100e39190610b1e565b60405180910390f35b3480156100f857600080fd5b50610101610264565b60405161010e9190610b1e565b60405180910390f35b34801561012357600080fd5b5061012c61026a565b6040516101399190610a78565b60405180910390f35b34801561014e57600080fd5b5061016960048036038101906101649190610988565b61027e565b6040516101769190610a5d565b60405180910390f35b6101996004803603810190610194919061095f565b6102bd565b6040516101a69190610abc565b60405180910390f35b3480156101bb57600080fd5b506101d660048036038101906101d19190610936565b610540565b6040516101e4929190610a93565b60405180910390f35b3480156101f957600080fd5b5061020261057e565b60405161020f9190610a78565b60405180910390f35b34801561022457600080fd5b5061022d610591565b005b34801561023b57600080fd5b506102566004803603810190610251919061095f565b6106bd565b005b60035481565b60025481565b60015481565b600080600354600254101590508091505090565b6004818154811061028e57600080fd5b906000526020600020016000915054906101000a900473ffffffffffffffffffffffffffffffffffffffff1681565b60606000803373ffffffffffffffffffffffffffffffffffffffff1673ffffffffffffffffffffffffffffffffffffffff16815260200190815260200160002060000160009054906101000a900460ff161561034e576040517f08c379a000000000000000000000000000000000000000000000000000000000815260040161034590610ade565b60405180910390fd5b64e8d4a51000341015610396576040517f08c379a000000000000000000000000000000000000000000000000000000000815260040161038d90610afe565b60405180910390fd5b600060405180604001604052806001151581526020018415158152509050806000803373ffffffffffffffffffffffffffffffffffffffff1673ffffffffffffffffffffffffffffffffffffffff16815260200190815260200160002060008201518160000160006101000a81548160ff02191690831515021790555060208201518160000160016101000a81548160ff0219169083151502179055509050506001600081548092919061044990610c35565b91905055506004339080600181540180825580915050600190039060005260206000200160009091909190916101000a81548173ffffffffffffffffffffffffffffffffffffffff021916908373ffffffffffffffffffffffffffffffffffffffff1602179055506001151583151514156104db57600260008154809291906104d190610c35565b9190505550610502565b60001515831515141561050157600360008154809291906104fb90610c35565b91905055505b5b6040518060400160405280601a81526020017f566f746520636f756e746564207375636365737366756c6c7921000000000000815250915050919050565b60006020528060005260406000206000915090508060000160009054906101000a900460ff16908060000160019054906101000a900460ff16905082565b600560009054906101000a900460ff1681565b60006006819055505b6004805490506006541015610695576000806004600654815481106105e8577f4e487b7100000000000000000000000000000000000000000000000000000000600052603260045260246000fd5b9060005260206000200160009054906101000a900473ffffffffffffffffffffffffffffffffffffffff1673ffffffffffffffffffffffffffffffffffffffff1673ffffffffffffffffffffffffffffffffffffffff168152602001908152602001600020600080820160006101000a81549060ff02191690556000820160016101000a81549060ff021916905550506006600081548092919061068b90610c35565b919050555061059a565b600460006106a391906108b9565b600060018190555060006002819055506000600381905550565b6000804790506001151583151514156106e557600254816106de9190610b55565b9150610704565b60001515831515141561070357600354816107009190610b55565b91505b5b60006006819055505b60015460065410156108b45782151560008060046006548154811061075b577f4e487b7100000000000000000000000000000000000000000000000000000000600052603260045260246000fd5b9060005260206000200160009054906101000a900473ffffffffffffffffffffffffffffffffffffffff1673ffffffffffffffffffffffffffffffffffffffff1673ffffffffffffffffffffffffffffffffffffffff16815260200190815260200160002060000160019054906101000a900460ff161515141561089757600460065481548110610815577f4e487b7100000000000000000000000000000000000000000000000000000000600052603260045260246000fd5b9060005260206000200160009054906101000a900473ffffffffffffffffffffffffffffffffffffffff1673ffffffffffffffffffffffffffffffffffffffff166108fc64e8d4a510008461086a9190610b86565b9081150290604051600060405180830381858888f19350505050158015610895573d6000803e3d6000fd5b505b600660008154809291906108aa90610c35565b919050555061070d565b505050565b50805460008255906000526020600020908101906108d791906108da565b50565b5b808211156108f35760008160009055506001016108db565b5090565b60008135905061090681610d65565b92915050565b60008135905061091b81610d7c565b92915050565b60008135905061093081610d93565b92915050565b60006020828403121561094857600080fd5b6000610956848285016108f7565b91505092915050565b60006020828403121561097157600080fd5b600061097f8482850161090c565b91505092915050565b60006020828403121561099a57600080fd5b60006109a884828501610921565b91505092915050565b6109ba81610bba565b82525050565b6109c981610bcc565b82525050565b60006109da82610b39565b6109e48185610b44565b93506109f4818560208601610c02565b6109fd81610cdc565b840191505092915050565b6000610a15601783610b44565b9150610a2082610ced565b602082019050919050565b6000610a38602c83610b44565b9150610a4382610d16565b604082019050919050565b610a5781610bf8565b82525050565b6000602082019050610a7260008301846109b1565b92915050565b6000602082019050610a8d60008301846109c0565b92915050565b6000604082019050610aa860008301856109c0565b610ab560208301846109c0565b9392505050565b60006020820190508181036000830152610ad681846109cf565b905092915050565b60006020820190508181036000830152610af781610a08565b9050919050565b60006020820190508181036000830152610b1781610a2b565b9050919050565b6000602082019050610b336000830184610a4e565b92915050565b600081519050919050565b600082825260208201905092915050565b6000610b6082610bf8565b9150610b6b83610bf8565b925082610b7b57610b7a610cad565b5b828204905092915050565b6000610b9182610bf8565b9150610b9c83610bf8565b925082821015610baf57610bae610c7e565b5b828203905092915050565b6000610bc582610bd8565b9050919050565b60008115159050919050565b600073ffffffffffffffffffffffffffffffffffffffff82169050919050565b6000819050919050565b60005b83811015610c20578082015181840152602081019050610c05565b83811115610c2f576000848401525b50505050565b6000610c4082610bf8565b91507fffffffffffffffffffffffffffffffffffffffffffffffffffffffffffffffff821415610c7357610c72610c7e565b5b600182019050919050565b7f4e487b7100000000000000000000000000000000000000000000000000000000600052601160045260246000fd5b7f4e487b7100000000000000000000000000000000000000000000000000000000600052601260045260246000fd5b6000601f19601f8301169050919050565b7f596f75206861766520616c726561647920766f74656421000000000000000000600082015250565b7f506c656173652073656e64206174206c6561737420302e30303030303120657460008201527f68657220746f20766f74652e0000000000000000000000000000000000000000602082015250565b610d6e81610bba565b8114610d7957600080fd5b50565b610d8581610bcc565b8114610d9057600080fd5b50565b610d9c81610bf8565b8114610da757600080fd5b5056fea2646970667358221220f047c1f090b5bd34401d446a69ea8722d50160daf29e1f8775357e1f829cbda464736f6c63430008020033",
    "linkReferences": {},
    "deployedLinkReferences": {}
}